{
  "_format": "hh3-artifact-1",
  "contractName": "HydrogenCredits",
  "sourceName": "contracts/HydrogenCredits.sol",
  "abi": [
    {
      "inputs": [],
      "stateMutability": "nonpayable",
      "type": "constructor"
    },
    {
      "inputs": [],
      "name": "admin",
      "outputs": [
        {
          "internalType": "address",
          "name": "",
          "type": "address"
        }
      ],
      "stateMutability": "view",
      "type": "function"
    },
    {
      "inputs": [
        {
          "internalType": "address",
          "name": "",
          "type": "address"
        }
      ],
      "name": "balances",
      "outputs": [
        {
          "internalType": "uint256",
          "name": "",
          "type": "uint256"
        }
      ],
      "stateMutability": "view",
      "type": "function"
    },
    {
      "inputs": [
        {
          "internalType": "address",
          "name": "user",
          "type": "address"
        },
        {
          "internalType": "uint256",
          "name": "amount",
          "type": "uint256"
        }
      ],
      "name": "creditUser",
      "outputs": [],
      "stateMutability": "nonpayable",
      "type": "function"
    },
    {
      "inputs": [
        {
          "internalType": "address",
          "name": "user",
          "type": "address"
        }
      ],
      "name": "getBalance",
      "outputs": [
        {
          "internalType": "uint256",
          "name": "",
          "type": "uint256"
        }
      ],
      "stateMutability": "view",
      "type": "function"
    },
    {
      "inputs": [
        {
          "internalType": "address",
          "name": "user",
          "type": "address"
        }
      ],
      "name": "registerUser",
      "outputs": [],
      "stateMutability": "nonpayable",
      "type": "function"
    },
    {
      "inputs": [
        {
          "internalType": "address",
          "name": "",
          "type": "address"
        }
      ],
      "name": "registeredUsers",
      "outputs": [
        {
          "internalType": "bool",
          "name": "",
          "type": "bool"
        }
      ],
      "stateMutability": "view",
      "type": "function"
    }
  ],
  "bytecode": "0x6080604052348015600e575f5ffd5b50335f5f6101000a81548173ffffffffffffffffffffffffffffffffffffffff021916908373ffffffffffffffffffffffffffffffffffffffff1602179055506108618061005b5f395ff3fe608060405234801561000f575f5ffd5b5060043610610060575f3560e01c80630e50cee5146100645780632113b139146100945780632199d5cd146100b057806327e235e3146100cc578063f851a440146100fc578063f8b2cb4f1461011a575b5f5ffd5b61007e60048036038101906100799190610564565b61014a565b60405161008b91906105a9565b60405180910390f35b6100ae60048036038101906100a991906105f5565b610167565b005b6100ca60048036038101906100c59190610564565b6102d5565b005b6100e660048036038101906100e19190610564565b610487565b6040516100f39190610642565b60405180910390f35b61010461049c565b604051610111919061066a565b60405180910390f35b610134600480360381019061012f9190610564565b6104c0565b6040516101419190610642565b60405180910390f35b6002602052805f5260405f205f915054906101000a900460ff1681565b5f5f9054906101000a900473ffffffffffffffffffffffffffffffffffffffff1673ffffffffffffffffffffffffffffffffffffffff163373ffffffffffffffffffffffffffffffffffffffff16146101f5576040517f08c379a00000000000000000000000000000000000000000000000000000000081526004016101ec906106dd565b60405180910390fd5b60025f8373ffffffffffffffffffffffffffffffffffffffff1673ffffffffffffffffffffffffffffffffffffffff1681526020019081526020015f205f9054906101000a900460ff1661027e576040517f08c379a000000000000000000000000000000000000000000000000000000000815260040161027590610745565b60405180910390fd5b8060015f8473ffffffffffffffffffffffffffffffffffffffff1673ffffffffffffffffffffffffffffffffffffffff1681526020019081526020015f205f8282546102ca9190610790565b925050819055505050565b5f5f9054906101000a900473ffffffffffffffffffffffffffffffffffffffff1673ffffffffffffffffffffffffffffffffffffffff163373ffffffffffffffffffffffffffffffffffffffff1614610363576040517f08c379a000000000000000000000000000000000000000000000000000000000815260040161035a906106dd565b60405180910390fd5b60025f8273ffffffffffffffffffffffffffffffffffffffff1673ffffffffffffffffffffffffffffffffffffffff1681526020019081526020015f205f9054906101000a900460ff16156103ed576040517f08c379a00000000000000000000000000000000000000000000000000000000081526004016103e49061080d565b60405180910390fd5b600160025f8373ffffffffffffffffffffffffffffffffffffffff1673ffffffffffffffffffffffffffffffffffffffff1681526020019081526020015f205f6101000a81548160ff0219169083151502179055505f60015f8373ffffffffffffffffffffffffffffffffffffffff1673ffffffffffffffffffffffffffffffffffffffff1681526020019081526020015f208190555050565b6001602052805f5260405f205f915090505481565b5f5f9054906101000a900473ffffffffffffffffffffffffffffffffffffffff1681565b5f60015f8373ffffffffffffffffffffffffffffffffffffffff1673ffffffffffffffffffffffffffffffffffffffff1681526020019081526020015f20549050919050565b5f5ffd5b5f73ffffffffffffffffffffffffffffffffffffffff82169050919050565b5f6105338261050a565b9050919050565b61054381610529565b811461054d575f5ffd5b50565b5f8135905061055e8161053a565b92915050565b5f6020828403121561057957610578610506565b5b5f61058684828501610550565b91505092915050565b5f8115159050919050565b6105a38161058f565b82525050565b5f6020820190506105bc5f83018461059a565b92915050565b5f819050919050565b6105d4816105c2565b81146105de575f5ffd5b50565b5f813590506105ef816105cb565b92915050565b5f5f6040838503121561060b5761060a610506565b5b5f61061885828601610550565b9250506020610629858286016105e1565b9150509250929050565b61063c816105c2565b82525050565b5f6020820190506106555f830184610633565b92915050565b61066481610529565b82525050565b5f60208201905061067d5f83018461065b565b92915050565b5f82825260208201905092915050565b7f4f6e6c792061646d696e2063616e2063616c6c207468697300000000000000005f82015250565b5f6106c7601883610683565b91506106d282610693565b602082019050919050565b5f6020820190508181035f8301526106f4816106bb565b9050919050565b7f55736572206e6f742072656769737465726564000000000000000000000000005f82015250565b5f61072f601383610683565b915061073a826106fb565b602082019050919050565b5f6020820190508181035f83015261075c81610723565b9050919050565b7f4e487b71000000000000000000000000000000000000000000000000000000005f52601160045260245ffd5b5f61079a826105c2565b91506107a5836105c2565b92508282019050808211156107bd576107bc610763565b5b92915050565b7f5573657220616c726561647920726567697374657265640000000000000000005f82015250565b5f6107f7601783610683565b9150610802826107c3565b602082019050919050565b5f6020820190508181035f830152610824816107eb565b905091905056fea2646970667358221220deb3e239d60a18e9b535662c18b1691fac68632850ada66090a5c2840e0e51f564736f6c634300081c0033",
  "linkReferences": {},
  "deployedLinkReferences": {},
  "immutableReferences": {},
  "inputSourceName": "project/contracts/HydrogenCredits.sol",
  "buildInfoId": "solc-0_8_28-129d41b6e111a0c59e930f75c7206c505a27858d"
}